:020000020000FC
:0200000009C035
:10001400002401E0102E0FE50DBF08E00EBF00E83C
:1000240004BF04BFAD9AAC9AA49A1FD000E00FBBE2
:1000340000E00EBB01B70DBB04E00CBB06E00CBB3B
:100044000000E199FECF18E000E123B325FFFDCFC6
:1000540035B3302723B325FDFDCF35BB1A95A9F75A
:1000640000000FE704BF04BFFFCF662780E0000055
:1000740050E8650F61BF0000000031D0403069F1E5
:100084005695552331F0052F413009F40195600F41
:10009400F1CF413011F051E001C05FEF650F61BF56
:1000A400000000001CD04030C1F0650F61BF0000AB
:1000B400000015D0403089F05195550F550F650F4C
:1000C40061BF000000000BD0403039F0882319F0E4
:1000D4008A9560E8CDCFA49AC4CF462F08953324DF
:1000E40001E0402E06E202BE11E09D9BFECF9D99E9
:1000F400FECF13BF28B720FF02C0310C48BE9D9B22
:10010400FECF28B720FF02C0310C48BE9D99FECF18
:1001140028B720FF02C0310C48BE9D9BFECF28B7F4
:1001240020FF02C0310C48BE9D99FECF0A9581F78D
:1001340028B720FF02C0310C48BE9D9BFECF28B7D4
:1001440020FF02C0310C48BE9D99FECF03BE28B7E4
:1001540020FF04C00894301C217028BF22B615E784
:1001640026E2211632063CF41FE326E2121523058B
:0E01740024F440E0089541E008954FEF08950F
:00000001FF
